:040000000C94580004
:040024000C944206F0
:04002C000C947507B4
:140054000602EC05CE05FC01E605C805A00500000000000072
:14006800000000000000000000000000000000000000414300
:14007C004B4C454E5F45525243484B5F45525249444C455F63
:140090004F4B4C494D5F414C494D5F424348415247554C4C6B
:1400A400494E4B007374617274656E64CFE5D4E0CDBFDEBF70
:1400B800C051D0400AEA08830024EEEAF0E011E0E63CF107BD
:1400CC0011F00192FBCF0083E2E6F0E0A0E6B0E010E000E0C1
:1400E0000BBFE03BF10721F0C89531960D92F9CF0E947B0076
:1400F400FFCF239783E58A83AA24BB2404EF11E00E94F806CA
:140108000E94160400E01BE40E942F070E9418070E944604C3
:14011C008EEF93E09093B7008093B60084E690E09093BB0084
:140130008093BA00222433243092C3002092C20081E09093D4
:14014400C1008093C0003092C5002092C4000E940F04E1C0C0
:140158000E94FE05002359F1A8950E9434040E940606402F4D
:14016C0055274434E0E05E07A1F04434E0E05E07D4F04535FA
:14018000E0E05E0709F015C08EE590E0998388832CE530E04D
:140194000AE510E00E942F020AC088E590E09983888326E5CC
:1401A80030E004E510E00E942F020E9441048E010E5F1F4F36
:1401BC000E944C04A02E002309F0A6C0A8950E94340423E0D3
:1401D00008E710E00E9464074A8155274434E0E05E0709F44E
:1401E40041C04534E0E05E0709F481C04834E0E05E0709F48C
:1401F8007DC04C34E0E05E0709F47EC04D34E0E05E0709F433
:14020C007CC08DE490E084179507C4F04233E0E05E0751F1FA
:140220004433E0E05E0709F43DC04633E0E05E0709F444C095
:140234004733E0E05E0709F44BC04933E0E05E0719F162C042
:140248004235E0E05E0709F44DC04535E0E05E0709F058C04C
:14025C002CE530E005E50E94360354C026E530E004E40E94EF
:1402700036034EC08091C0009091C10001969093C1008093F2
:14028400C0000E947E0442C08091C2009091C300019690930F
:14029800C3008093C2000E947E0436C08091B6009091B70001
:1402AC0005979093B7008093B6000E947E042AC08091BA0026
:1402C0009091BB0005969093BB008093BA000E947E041EC006
:1402D4008091C4009091C50001969093C5008093C4000E9463
:1402E8007E0412C00E947E040FC0FFCF23E00DE810E00E9463
:1402FC00640708C00E94730505C00E94470502C00E942D025B
:140310000E944104A8950E942D021ECF23960895D098D898C9
:1403240080E487B980E886B90895AA92BA92369A01C0A89587
:14033800349BFDCFA4B0BB2425B1332700E011E00E94BB087D
:14034C00A00EB11E05E010E00E94F8068501B990A990089506
:140360000E9418094427AA24BB24E1DF6801809174008A3046
:1403740078F4282E8F5F8093740080E690E0E22DFF27EE0F36
:14038800FF1FE80FF91FD182C08230C044271FC0A89580E6C2
:14039C0090E0E42FFF27EE0FFF1FE80FF91F20803180A20C7B
:1403B000B31CE42FFF273196EE0FFF1FE80FF91F20803180EF
:1403C400E42FFF27EE0FFF1FE80FF91F31822082439549301C
:1403D800F8F2A9DF6801D0927300C0927200A00EB11E2AE016
:1403EC0030E085010E9437080C941F09DB9ADA9A0091C40080
:140400001091C5000E94F806DC9A0895DB98DA9A0091C40093
:140414001091C5000E94F806DC9A0895DD980091C400109150
:14042800C5000E94F806DE980895DD9A0091C4001091C50016
:14043C000E94F806DE98089500270E948306DA98DC98089524
:1404500001E00E948306DE9A0895F4DFF9CF0E94ED085901EB
:1404640078012497CC84DD844427552700270E9483062090B6
:140478007500222029F4F6010E943809002311F4CAD16FC0D0
:14048C00F5010E943809002331F025E000E910E00E94640754
:1404A00064C0F7010E943809DB82CA82B982A88222270027CB
:1404B4000E949606F5010E943809E02E002339F0BFDF25E020
:1404C80000E910E00E94640747C005E010E00E94F80635C0C9
:1404DC00A8954F5F5F4F0AE010E00E94F8064039E1E05E075A
:1404F00010F040E951E0F6010E943809E02E002359F404E161
:1405040010E00E94F806F6010E943809E02E002309F418C073
:14051800F5010E943809E02E002389F00AE010E00E94F806D2
:14052C00F5010E943809E02E002339F085DF25E000E910E046
:140540000E9464070DC0CACF4039E1E05E0740F0DB82CA82BC
:14055400B982A882222701E00E94960671DF08E512E00E94F5
:14056800F80624960C94D7080E94ED08590178012497CC84D3
:14057C00DD844427552701E00E9483060AE010E00E94F8069D
:1405900020907500222029F4F6010E943809002311F43DD1C3
:1405A40060C0F5010E943809002331F025E005E910E00E9481
:1405B800640755C0F7010E943809DB82CA82B982A88221E0C5
:1405CC0000270E949606F5010E943809E02E002391F138DF13
:1405E00025E005E910E00E94640738C0A8954F5F5F4F0AE09C
:1405F40010E00E94F8064039E1E05E0710F040E951E0F60173
:140608000E943809E02E002359F40AE010E00E94F806F6010C
:14061C000E943809E02E002309F40EC0F5010E943809E02E04
:14063000002339F00DDF25E005E910E00E9464070DC0D4CF1E
:140644004039E1E05E0740F0DB82CA82B982A88221E001E0E3
:140658000E949606F9DE08E512E00E94F80624960C94D708C1
:14066C000E9418095901402F259783E58C83CC24DD240027A3
:140680000E9483060AE010E00E94F80620907500222011F059
:14069400C4D046C0F5010E943809002331F025E000E910E0BD
:1406A8000E9464073BC0443411F4ACDE01C0A0DE80E690E01A
:1406BC009B838A83B982A882222700270E949606F5010E9454
:1406D0003809002339F0B6DE25E000E910E00E9464071BC02F
:1406E40005E010E00E94F80615C08E010C5F1F4FD1D0C02EC1
:1406F800002309F40EC0F5010E943809C02E002339F09CDE73
:14070C0025E000E910E00E94640701C0EACF94DE08E512E023
:140720000E94F80625960C941F090E9418095901402F25975A
:1407340083E58C83CC24DD2401E00E948306209075002220D6
:1407480029F4F5010E943809002311F064D042C0F5010E94B5
:14075C003809002331F025E005E910E00E94640737C04634A3
:1407700011F456DE01C05DDE80E690E09B838A83B982A882DA
:1407840021E000270E949606F5010E943809C02E0023E1F040
:140798005BDE25E005E910E00E94640716C08E010C5F1F4FE6
:1407AC0075D0C02E002309F40EC0F5010E943809C02E00232E
:1407C00039F046DE25E005E910E00E94640701C0EACF3EDE52
:1407D40008E512E00E94F80625960C941F09AA92A02E8091F4
:1407E8007500813029F4D99822242092750004C0D99A81E044
:1407FC00809375000ED0AA2031F001C0A8950E94DA050023F6
:14081000D9F704E610E00E94F806A9900895979A02E310E0AE
:140824000E94F80697980895DC98DE9AD098D8988AB38E6F56
:140838008ABBDC98DE9AD998DA98222424BA8FEF85BBA79A75
:14084C008F9A8E9A969A97988A988B988C988D98939A929A01
:14086000949A959AAF9A0895AF9820907500222031F4222428
:1408740033243092770020927600A8950895AF9A08EC10E0B1
:140888000C94F806A8958FE181BD8FE081BD08950E94F608E9
:14089C005801219722242882A8958E010E940408A8010030F4
:1408B000010711F401E01FC08881843039F027E00BE710E098
:1408C4000E94640702E015C0FA0121803080320C2280320CF2
:1408D8002380321439F027E002E810E00E94640703E005C064
:1408EC00FA012180F5012082002721960C94FB080091C400EE
:140900001091C500012F11270E945C070091C4001091C50055
:140914000E945C070AEA0E945C070091B6001091B700012F02
:1409280011270E945C070091B6001091B7000E945C070AEAE6
:14093C000E945C070091B4001091B500012F11270E945C079A
:140950000091B4001091B5000E945C070AEA0E945C07009169
:14096400BA001091BB00012F11270E945C070091BA00109110
:14097800BB000E945C070AEA0E945C070091B8001091B9000F
:14098C00012F11270E945C070091B8001091B9000E945C0742
:1409A0000AEA0E945C070091C2001091C300012F11270E9489
:1409B4005C070091C2001091C3000E945C070AEA0E945C0717
:1409C8000091BE001091BF00012F11270E945C070091BE00B0
:1409DC001091BF000E945C070AEA0E945C070091C0001091B7
:1409F000C100012F11270E945C070091C0001091C1000E9470
:140A04005C070AEA0E945C070091BC001091BD00012F11276F
:140A18000E945C070091BC001091BD000E945C070AEA0E947F
:140A2C005C070091AE001091AF00012F11270E945C070091C6
:140A4000AE001091AF000E945C070AEA0E945C070091B00065
:140A54001091B100012F11270E945C070091B0001091B1003C
:140A68000E945C070AEA0E945C070091B2001091B300012FB5
:140A7C0011270E945C070091B2001091B3000C945C070E94ED
:140A90000A09662777278EEA90E05C0144270CC0E42FFF275F
:140AA400EA0DFB1D20811B016F5F7F4F81010E94A205439533
:140AB800463090F384EB90E05C0144270CC0E42FFF27EA0D8E
:140ACC00FB1D20811B016F5F7F4F81010E94A205439542318F
:140AE00090F30C9411090E942609662777278EEA90E05C0184
:140AF40044270CC01B016F5F7F4F81010E94B505E42FFF27E8
:140B0800EA0DFB1D00834395463090F384EB90E05C014427CF
:140B1C000DC06B016F5F7F4F86010E94B505C02EE42FFF27E6
:140B3000EA0DFB1DC0824395423188F30C942F0901E0089544
:140B44000E94F108A22E6801E199FECFDFBACEBAADBAE29A7E
:140B5800F894E19A789401E010E00E94F8060C94CB08E19918
:140B6C00FECF1FBB0EBBE09A0DB30895989B02C0002701C051
:140B800001E00895999B02C0002701C001E008959C9B02C08E
:140B9400002701C001E008959D9B02C0002701C001E0089587
:140BA8009A9B02C0002701C001E008959B9B02C0002701C0FC
:140BBC0001E008959E9B02C0002701C001E00895829B02C067
:140BD000002701C001E00895839B02C0002701C001E0089565
:140BE400859B02C0002701C001E00895849B02C0002701C0EC
:140BF80001E0089583B38F738F3311F4002701C001E0089506
:140C0C0003E523B333272F7330702F32E0E03E0709F18FE2A9
:140C200090E0821793072CF02F31E0E03E07D1F01AC02733A7
:140C3400E0E03E0789F02B33E0E03E0791F02D33E0E03E07E5
:140C480039F02E33E0E03E0709F009C002E407C006E405C0EB
:140C5C0000E503C005E501C004E40895222423BE82EB82BFD7
:140C700089B7816089BF88B7816088BF85E083BF7894089550
:140C84002A923A928A939A93AA93EA932FB62A9282EB82BF81
:140C9800809176009091770001969093770080937600803EB1
:140CAC00EEE29E0770F020907500222021F4D99A81E08093FC
:140CC000750022243324309277002092760029902FBEE9918D
:140CD400A991999189913990299018950E94F608402F4130DF
:140CE80029F4A090B400B090B50004C0A090B600B090B70061
:140CFC0085010E941E070C94FB080E94F608402F413029F457
:140D1000A090B800B090B90004C0A090BA00B090BB008501BF
:140D24000E941E070C94FB080E94EB08622F402F219783E59C
:140D38008883A895613069F46091B4007091B500A090B8002E
:140D4C00B090B900C090BC00D090BD000CC06091B6007091FD
:140D6000B700A090BA00B090BB00C090C000D090C100413041
:140D740009F421C0A5011BC08A010E941E0786010E94F80693
:140D8800EB85FC850E943809002361F48E010E944C04002367
:140D9C0039F0ED85FE850E943809E02E002309F41CC04F5F8A
:140DB0005F4F4617570710F318C0AB0110C08A010E941E071D
:140DC40086010E94F806EB85FC850E943809602F002309F075
:140DD80006C0415050404A155B0568F302C00E942D022196BC
:140DEC000C94E0080E94000966277727442755270CC0662755
:140E0000772702C06F5F7F4F6537E4E07E07D0F3A8954F5F4F
:140E14005F4F4017510788F30C940509180101501040222048
:140E2800D9F73320C9F70895BD9ABF9ABC9A81E58DB90895E7
:140E3C00A895000F111F000F111FC4981801232C33242FB8E5
:140E5000779BFECF0FB9779BFECFC49A08950E940A095801FF
:140E640022242AB82BB886E880BD15014424552440E251EA70
:140E780067E070E05A924A923A922A928A019B010E94570857
:140E8C0041E050E060E070E018012901241A350A460A570A00
:140EA000510129B8232C332420BC88E98AB980E88FBF899AFC
:140EB4000C941109A8955D9BFECF0CB95E9BFECF5E9A08954E
:140EC8000E94EF08C22E7801AA2407C0EA2DFF27EE0DFF1D2B
:140EDC000081ECDFA394AC14B8F30C94D0082A923A928A93F7
:140EF0009A93EA93FA932FB62A9257982090A5003324822DCC
:140F04008F5F8093A50086EC90E0E22DFF27E80FF91F2CB031
:140F18002082A895579A29902FBEF991E9919991899139903E
:140F2C002990189522242092A50008950091A50008950E949C
:140F40000A09AA244FEFA89566272FC0A89586EC90E0E62F91
:140F5400FF27E80FF91F20803090A600231411F5AA24A3940C
:140F680002C0A394A8952A2C3324E62FFF27E20DF31D86ECE6
:140F7C0090E0E80FF91F208086EA90E0EA2DFF27E80FF91F16
:140F90003080231419F48A2D853038F38A2D853018F0462FD9
:140FA4004B5F06C06395802F8450681708F4CCCF042F0C9465
:140FB80011094A93442702C0A8954395242E3324E2E0F0E0B1
:140FCC00E219F3098BEA90E0E80FF91F2080342E4424E02FAD
:140FE000FF273197E319F40986EC90E0E80FF91F308032142F
:140FF40011F4433018F3433010F001E001C0002749910895B3
:141008000E942609580194DF602F4FEFA8950C3018F40027BE
:14101C00112723C084E1861708F419C0062FC7DF013009F0C9
:1410300014C0062F84DFC02E4C2D0F3F09F40DC077DF862FB6
:14104400841B8350F501808386EC90E0042F1127080F191F91
:1410580006C06ADF2224F5012082002711270C942F09689464
:14106C0001C0E894EA92FA928A93EE24FF2480E1000F111F39
:14108000EE1CFF1CE216F30618F0E21AF30A03958A95A1F7F6
:1410940016F40E2D1F2D8991F990E9900895E89401C06894C5
:1410A80030D0CC2409C0E89401C068942AD037FD0E94410928
:1410BC00B7FD52D0772488249924AA24BB2442D0C1F045D0C1
:1410D000B1F0E8E2000F111F221F331F771C881C991CAA1C1D
:1410E400BB1C88169906AA06BB0628F0881A990AAA0ABB0A9D
:1410F8000395EA9559F726F4082D192D2A2D3B2D13C07A924A
:14110C008A929A92AA92BA92CA92EA938A939A93AA93BA9352
:141120008B859C85AD85BE85C32E0EF0CB260895C7FC0E9433
:141134004109B991A99199918991E991C990B990A990999017
:141148008990799024960895E02FE12BE22BE32B0895E82F30
:14115C00E92BEA2BEB2B089580959095A095B0958F5F9F4F13
:14117000AF4FBF4F08950A921A928A939A93029FC001129F1D
:14118400900D039F900D8C0199918991199009900895A99092
:14119800B990C990D9900895A990B990C990D990E990F99055
:1411AC000895A990B990C990D990E990F990499159910895EB
:1411C000A990B990C990D990E990F99049915991699179910D
:1411D40008957A936A935A934A93FA92EA92DA92CA92BA927A
:1411E800AA9208955A934A93BA92AA920895A990B9904991CF
:1411FC00599108957A936A935A934A93089549915991699129
:14121000799108957A936A935A934A93BA92AA920895A990F1
:14122400B990499159916991799108955A934A93DA92CA9276
:14123800BA92AA920895A990B990C990D990499159910895D8
:14124C007A936A935A934A93DA92CA92BA92AA920895A99094
:14126000B990C990D990499159916991799108950A92C89511
:141274000A923196C895F02DE99109900994009510952095EA
:0C12880030950F5F1F4F2F4F3F4F089510
:00000001FF
